{
    "_format": "hh-sol-artifact-1",
    "contractName": "Commerce",
    "sourceName": "contracts/Commerce.sol",
    "abi": [
        {
            "inputs": [],
            "stateMutability": "nonpayable",
            "type": "constructor"
        },
        {
            "anonymous": false,
            "inputs": [
                {
                    "indexed": false,
                    "internalType": "address",
                    "name": "from",
                    "type": "address"
                },
                {
                    "indexed": false,
                    "internalType": "uint256",
                    "name": "id",
                    "type": "uint256"
                }
            ],
            "name": "ApprovedBySeller",
            "type": "event"
        },
        {
            "anonymous": false,
            "inputs": [
                {
                    "indexed": false,
                    "internalType": "address",
                    "name": "from",
                    "type": "address"
                },
                {
                    "indexed": false,
                    "internalType": "uint256",
                    "name": "id",
                    "type": "uint256"
                }
            ],
            "name": "Ended",
            "type": "event"
        },
        {
            "anonymous": false,
            "inputs": [
                {
                    "indexed": false,
                    "internalType": "address",
                    "name": "from",
                    "type": "address"
                },
                {
                    "indexed": false,
                    "internalType": "uint256",
                    "name": "amount",
                    "type": "uint256"
                }
            ],
            "name": "PaymentReceived",
            "type": "event"
        },
        {
            "inputs": [
                {
                    "internalType": "uint256",
                    "name": "_id",
                    "type": "uint256"
                }
            ],
            "name": "approveByBuyer",
            "outputs": [],
            "stateMutability": "nonpayable",
            "type": "function"
        },
        {
            "inputs": [
                {
                    "internalType": "uint256",
                    "name": "_id",
                    "type": "uint256"
                }
            ],
            "name": "approveBySeller",
            "outputs": [],
            "stateMutability": "nonpayable",
            "type": "function"
        },
        {
            "inputs": [],
            "name": "getMyTransactions",
            "outputs": [
                {
                    "components": [
                        {
                            "internalType": "uint256",
                            "name": "id",
                            "type": "uint256"
                        },
                        {
                            "internalType": "address",
                            "name": "buyer",
                            "type": "address"
                        },
                        {
                            "internalType": "address",
                            "name": "seller",
                            "type": "address"
                        },
                        {
                            "internalType": "uint256",
                            "name": "amount",
                            "type": "uint256"
                        },
                        {
                            "internalType": "enum Commerce.Status",
                            "name": "status",
                            "type": "uint8"
                        },
                        {
                            "internalType": "uint256",
                            "name": "timestamp",
                            "type": "uint256"
                        }
                    ],
                    "internalType": "struct Commerce.Transaction[]",
                    "name": "",
                    "type": "tuple[]"
                }
            ],
            "stateMutability": "view",
            "type": "function"
        },
        {
            "inputs": [
                {
                    "internalType": "uint256",
                    "name": "_id",
                    "type": "uint256"
                }
            ],
            "name": "getTransactionById",
            "outputs": [
                {
                    "components": [
                        {
                            "internalType": "uint256",
                            "name": "id",
                            "type": "uint256"
                        },
                        {
                            "internalType": "address",
                            "name": "buyer",
                            "type": "address"
                        },
                        {
                            "internalType": "address",
                            "name": "seller",
                            "type": "address"
                        },
                        {
                            "internalType": "uint256",
                            "name": "amount",
                            "type": "uint256"
                        },
                        {
                            "internalType": "enum Commerce.Status",
                            "name": "status",
                            "type": "uint8"
                        },
                        {
                            "internalType": "uint256",
                            "name": "timestamp",
                            "type": "uint256"
                        }
                    ],
                    "internalType": "struct Commerce.Transaction",
                    "name": "",
                    "type": "tuple"
                }
            ],
            "stateMutability": "view",
            "type": "function"
        },
        {
            "inputs": [],
            "name": "getTransactions",
            "outputs": [
                {
                    "components": [
                        {
                            "internalType": "uint256",
                            "name": "id",
                            "type": "uint256"
                        },
                        {
                            "internalType": "address",
                            "name": "buyer",
                            "type": "address"
                        },
                        {
                            "internalType": "address",
                            "name": "seller",
                            "type": "address"
                        },
                        {
                            "internalType": "uint256",
                            "name": "amount",
                            "type": "uint256"
                        },
                        {
                            "internalType": "enum Commerce.Status",
                            "name": "status",
                            "type": "uint8"
                        },
                        {
                            "internalType": "uint256",
                            "name": "timestamp",
                            "type": "uint256"
                        }
                    ],
                    "internalType": "struct Commerce.Transaction[]",
                    "name": "",
                    "type": "tuple[]"
                }
            ],
            "stateMutability": "view",
            "type": "function"
        },
        {
            "inputs": [
                {
                    "internalType": "uint256",
                    "name": "_amount",
                    "type": "uint256"
                },
                {
                    "internalType": "address",
                    "name": "_to",
                    "type": "address"
                }
            ],
            "name": "receivePayment",
            "outputs": [],
            "stateMutability": "payable",
            "type": "function"
        }
    ],
    "bytecode": "0x608060405234801561001057600080fd5b5033600160006101000a81548173ffffffffffffffffffffffffffffffffffffffff021916908373ffffffffffffffffffffffffffffffffffffffff160217905550611a0e806100616000396000f3fe6080604052600436106100555760003560e01c8063041b5dfb1461005a57806372fd5b3d1461008357806383920e901461009f57806397e4ca70146100ca578063a8645f9f146100f5578063f4b30eaf1461011e575b600080fd5b34801561006657600080fd5b50610081600480360381019061007c91906111ee565b61015b565b005b61009d60048036038101906100989190611279565b610491565b005b3480156100ab57600080fd5b506100b46107a7565b6040516100c19190611478565b60405180910390f35b3480156100d657600080fd5b506100df61099b565b6040516100ec9190611478565b60405180910390f35b34801561010157600080fd5b5061011c600480360381019061011791906111ee565b610c14565b005b34801561012a57600080fd5b50610145600480360381019061014091906111ee565b610e31565b6040516101529190611515565b60405180910390f35b60008054905081106101a2576040517f08c379a00000000000000000000000000000000000000000000000000000000081526004016101999061158d565b60405180910390fd5b600081815481106101b6576101b56115ad565b5b906000526020600020906006020160010160009054906101000a900473ffffffffffffffffffffffffffffffffffffffff1673ffffffffffffffffffffffffffffffffffffffff163373ffffffffffffffffffffffffffffffffffffffff1614610255576040517f08c379a000000000000000000000000000000000000000000000000000000000815260040161024c90611628565b60405180910390fd5b6001600281111561026957610268611303565b5b6000828154811061027d5761027c6115ad565b5b906000526020600020906006020160040160009054906101000a900460ff1660028111156102ae576102ad611303565b5b146102ee576040517f08c379a00000000000000000000000000000000000000000000000000000000081526004016102e590611694565b60405180910390fd5b60008181548110610302576103016115ad565b5b906000526020600020906006020160030154471015610356576040517f08c379a000000000000000000000000000000000000000000000000000000000815260040161034d90611700565b60405180910390fd5b6000818154811061036a576103696115ad565b5b906000526020600020906006020160020160009054906101000a900473ffffffffffffffffffffffffffffffffffffffff1673ffffffffffffffffffffffffffffffffffffffff166108fc600083815481106103c9576103c86115ad565b5b9060005260206000209060060201600301549081150290604051600060405180830381858888f19350505050158015610406573d6000803e3d6000fd5b5060026000828154811061041d5761041c6115ad565b5b906000526020600020906006020160040160006101000a81548160ff021916908360028111156104505761044f611303565b5b02179055507f0ab6ead5ff681783e38604d729771f8ba89300f334c9f52cba4909f79c6b5588338260405161048692919061173e565b60405180910390a150565b600082116104d4576040517f08c379a00000000000000000000000000000000000000000000000000000000081526004016104cb906117b3565b60405180910390fd5b813414610516576040517f08c379a000000000000000000000000000000000000000000000000000000000815260040161050d90611845565b60405180910390fd5b60006040518060c0016040528060008054905081526020013373ffffffffffffffffffffffffffffffffffffffff1681526020018373ffffffffffffffffffffffffffffffffffffffff168152602001848152602001600060028111156105805761057f611303565b5b815260200142815250905060008190806001815401808255809150506001900390600052602060002090600602016000909190919091506000820151816000015560208201518160010160006101000a81548173ffffffffffffffffffffffffffffffffffffffff021916908373ffffffffffffffffffffffffffffffffffffffff16021790555060408201518160020160006101000a81548173ffffffffffffffffffffffffffffffffffffffff021916908373ffffffffffffffffffffffffffffffffffffffff1602179055506060820151816003015560808201518160040160006101000a81548160ff0219169083600281111561068457610683611303565b5b021790555060a082015181600501555050600260003373ffffffffffffffffffffffffffffffffffffffff1673ffffffffffffffffffffffffffffffffffffffff16815260200190815260200160002081600001519080600181540180825580915050600190039060005260206000200160009091909190915055600260008373ffffffffffffffffffffffffffffffffffffffff1673ffffffffffffffffffffffffffffffffffffffff168152602001908152602001600020816000015190806001815401808255809150506001900390600052602060002001600090919091909150557f6ef95f06320e7a25a04a175ca677b7052bdd97131872c2192525a629f51be770338460405161079a92919061173e565b60405180910390a1505050565b6060600160009054906101000a900473ffffffffffffffffffffffffffffffffffffffff1673ffffffffffffffffffffffffffffffffffffffff163373ffffffffffffffffffffffffffffffffffffffff1614610839576040517f08c379a0000000000000000000000000000000000000000000000000000000008152600401610830906118b1565b60405180910390fd5b6000805480602002602001604051908101604052809291908181526020016000905b8282101561099257838290600052602060002090600602016040518060c0016040529081600082015481526020016001820160009054906101000a900473ffffffffffffffffffffffffffffffffffffffff1673ffffffffffffffffffffffffffffffffffffffff1673ffffffffffffffffffffffffffffffffffffffff1681526020016002820160009054906101000a900473ffffffffffffffffffffffffffffffffffffffff1673ffffffffffffffffffffffffffffffffffffffff1673ffffffffffffffffffffffffffffffffffffffff168152602001600382015481526020016004820160009054906101000a900460ff16600281111561096357610962611303565b5b600281111561097557610974611303565b5b81526020016005820154815250508152602001906001019061085b565b50505050905090565b60606000600260003373ffffffffffffffffffffffffffffffffffffffff1673ffffffffffffffffffffffffffffffffffffffff168152602001908152602001600020805480602002602001604051908101604052809291908181526020018280548015610a2857602002820191906000526020600020905b815481526020019060010190808311610a14575b505050505090506000815167ffffffffffffffff811115610a4c57610a4b6118d1565b5b604051908082528060200260200182016040528015610a8557816020015b610a7261113f565b815260200190600190039081610a6a5790505b50905060005b8251811015610c0b576000838281518110610aa957610aa86115ad565b5b602002602001015181548110610ac257610ac16115ad565b5b90600052602060002090600602016040518060c0016040529081600082015481526020016001820160009054906101000a900473ffffffffffffffffffffffffffffffffffffffff1673ffffffffffffffffffffffffffffffffffffffff1673ffffffffffffffffffffffffffffffffffffffff1681526020016002820160009054906101000a900473ffffffffffffffffffffffffffffffffffffffff1673ffffffffffffffffffffffffffffffffffffffff1673ffffffffffffffffffffffffffffffffffffffff168152602001600382015481526020016004820160009054906101000a900460ff166002811115610bc057610bbf611303565b5b6002811115610bd257610bd1611303565b5b8152602001600582015481525050828281518110610bf357610bf26115ad565b5b60200260200101819052508080600101915050610a8b565b50809250505090565b6000805490508110610c5b576040517f08c379a0000000000000000000000000000000000000000000000000000000008152600401610c529061158d565b60405180910390fd5b60008181548110610c6f57610c6e6115ad565b5b906000526020600020906006020160020160009054906101000a900473ffffffffffffffffffffffffffffffffffffffff1673ffffffffffffffffffffffffffffffffffffffff163373ffffffffffffffffffffffffffffffffffffffff1614610d0e576040517f08c379a0000000000000000000000000000000000000000000000000000000008152600401610d059061194c565b60405180910390fd5b60006002811115610d2257610d21611303565b5b60008281548110610d3657610d356115ad565b5b906000526020600020906006020160040160009054906101000a900460ff166002811115610d6757610d66611303565b5b14610da7576040517f08c379a0000000000000000000000000000000000000000000000000000000008152600401610d9e90611694565b60405180910390fd5b600160008281548110610dbd57610dbc6115ad565b5b906000526020600020906006020160040160006101000a81548160ff02191690836002811115610df057610def611303565b5b02179055507ffa6a623b1b9ce3368686f28e103643e4ec8375845c7f06189348a9109ebc7e883382604051610e2692919061173e565b60405180910390a150565b610e3961113f565b6000805490508210610e80576040517f08c379a0000000000000000000000000000000000000000000000000000000008152600401610e779061158d565b60405180910390fd5b60008281548110610e9457610e936115ad565b5b906000526020600020906006020160010160009054906101000a900473ffffffffffffffffffffffffffffffffffffffff1673ffffffffffffffffffffffffffffffffffffffff163373ffffffffffffffffffffffffffffffffffffffff161480610f6f575060008281548110610f0e57610f0d6115ad565b5b906000526020600020906006020160020160009054906101000a900473ffffffffffffffffffffffffffffffffffffffff1673ffffffffffffffffffffffffffffffffffffffff163373ffffffffffffffffffffffffffffffffffffffff16145b80610fc75750600160009054906101000a900473ffffffffffffffffffffffffffffffffffffffff1673ffffffffffffffffffffffffffffffffffffffff163373ffffffffffffffffffffffffffffffffffffffff16145b611006576040517f08c379a0000000000000000000000000000000000000000000000000000000008152600401610ffd906119b8565b60405180910390fd5b6000828154811061101a576110196115ad565b5b90600052602060002090600602016040518060c0016040529081600082015481526020016001820160009054906101000a900473ffffffffffffffffffffffffffffffffffffffff1673ffffffffffffffffffffffffffffffffffffffff1673ffffffffffffffffffffffffffffffffffffffff1681526020016002820160009054906101000a900473ffffffffffffffffffffffffffffffffffffffff1673ffffffffffffffffffffffffffffffffffffffff1673ffffffffffffffffffffffffffffffffffffffff168152602001600382015481526020016004820160009054906101000a900460ff16600281111561111857611117611303565b5b600281111561112a57611129611303565b5b81526020016005820154815250509050919050565b6040518060c0016040528060008152602001600073ffffffffffffffffffffffffffffffffffffffff168152602001600073ffffffffffffffffffffffffffffffffffffffff16815260200160008152602001600060028111156111a6576111a5611303565b5b8152602001600081525090565b600080fd5b6000819050919050565b6111cb816111b8565b81146111d657600080fd5b50565b6000813590506111e8816111c2565b92915050565b600060208284031215611204576112036111b3565b5b6000611212848285016111d9565b91505092915050565b600073ffffffffffffffffffffffffffffffffffffffff82169050919050565b60006112468261121b565b9050919050565b6112568161123b565b811461126157600080fd5b50565b6000813590506112738161124d565b92915050565b600080604083850312156112905761128f6111b3565b5b600061129e858286016111d9565b92505060206112af85828601611264565b9150509250929050565b600081519050919050565b600082825260208201905092915050565b6000819050602082019050919050565b6112ee816111b8565b82525050565b6112fd8161123b565b82525050565b7f4e487b7100000000000000000000000000000000000000000000000000000000600052602160045260246000fd5b6003811061134357611342611303565b5b50565b600081905061135482611332565b919050565b600061136482611346565b9050919050565b61137481611359565b82525050565b60c08201600082015161139060008501826112e5565b5060208201516113a360208501826112f4565b5060408201516113b660408501826112f4565b5060608201516113c960608501826112e5565b5060808201516113dc608085018261136b565b5060a08201516113ef60a08501826112e5565b50505050565b6000611401838361137a565b60c08301905092915050565b6000602082019050919050565b6000611425826112b9565b61142f81856112c4565b935061143a836112d5565b8060005b8381101561146b57815161145288826113f5565b975061145d8361140d565b92505060018101905061143e565b5085935050505092915050565b60006020820190508181036000830152611492818461141a565b905092915050565b60c0820160008201516114b060008501826112e5565b5060208201516114c360208501826112f4565b5060408201516114d660408501826112f4565b5060608201516114e960608501826112e5565b5060808201516114fc608085018261136b565b5060a082015161150f60a08501826112e5565b50505050565b600060c08201905061152a600083018461149a565b92915050565b600082825260208201905092915050565b7f4964206f7574206f6620626f756e64732e000000000000000000000000000000600082015250565b6000611577601183611530565b915061158282611541565b602082019050919050565b600060208201905081810360008301526115a68161156a565b9050919050565b7f4e487b7100000000000000000000000000000000000000000000000000000000600052603260045260246000fd5b7f596f7520617265206e6f74207468652062757965722e00000000000000000000600082015250565b6000611612601683611530565b915061161d826115dc565b602082019050919050565b6000602082019050818103600083015261164181611605565b9050919050565b7f4f7065726174696f6e206e6f742076616c69642e000000000000000000000000600082015250565b600061167e601483611530565b915061168982611648565b602082019050919050565b600060208201905081810360008301526116ad81611671565b9050919050565b7f496e73756666696369656e7420636f6e74726163742062616c616e6365000000600082015250565b60006116ea601d83611530565b91506116f5826116b4565b602082019050919050565b60006020820190508181036000830152611719816116dd565b9050919050565b6117298161123b565b82525050565b611738816111b8565b82525050565b60006040820190506117536000830185611720565b611760602083018461172f565b9392505050565b7f596f75206d7573742073656e6420736f6d652065746865722e00000000000000600082015250565b600061179d601983611530565b91506117a882611767565b602082019050919050565b600060208201905081810360008301526117cc81611790565b9050919050565b7f53656e7420657468657220646f6573206e6f74206d617463682074686520737060008201527f6563696669656420616d6f756e742e0000000000000000000000000000000000602082015250565b600061182f602f83611530565b915061183a826117d3565b604082019050919050565b6000602082019050818103600083015261185e81611822565b9050919050565b7f596f7520617265206e6f7420746865206f776e65722e00000000000000000000600082015250565b600061189b601683611530565b91506118a682611865565b602082019050919050565b600060208201905081810360008301526118ca8161188e565b9050919050565b7f4e487b7100000000000000000000000000000000000000000000000000000000600052604160045260246000fd5b7f596f7520617265206e6f74207468652073656c6c65722e000000000000000000600082015250565b6000611936601783611530565b915061194182611900565b602082019050919050565b6000602082019050818103600083015261196581611929565b9050919050565b7f596f7520617265206e6f7420617574686f72697a65642e000000000000000000600082015250565b60006119a2601783611530565b91506119ad8261196c565b602082019050919050565b600060208201905081810360008301526119d181611995565b905091905056fea2646970667358221220f117ce4da00ac6f855fbaf70f53c6e1cd03fb4bbebc11627ac228ddf872fab2464736f6c63430008180033",
    "linkReferences": {},
    "deployedLinkReferences": {}
}