{
    "_format": "hh-sol-artifact-1",
    "contractName": "Commerce",
    "sourceName": "contracts/Commerce.sol",
    "abi": [
        {
            "inputs": [],
            "stateMutability": "nonpayable",
            "type": "constructor"
        },
        {
            "anonymous": false,
            "inputs": [
                {
                    "indexed": false,
                    "internalType": "address",
                    "name": "from",
                    "type": "address"
                },
                {
                    "indexed": false,
                    "internalType": "uint256",
                    "name": "id",
                    "type": "uint256"
                }
            ],
            "name": "ApprovedBySeller",
            "type": "event"
        },
        {
            "anonymous": false,
            "inputs": [
                {
                    "indexed": false,
                    "internalType": "address",
                    "name": "from",
                    "type": "address"
                },
                {
                    "indexed": false,
                    "internalType": "uint256",
                    "name": "id",
                    "type": "uint256"
                }
            ],
            "name": "Ended",
            "type": "event"
        },
        {
            "anonymous": false,
            "inputs": [
                {
                    "indexed": false,
                    "internalType": "address",
                    "name": "from",
                    "type": "address"
                },
                {
                    "indexed": false,
                    "internalType": "uint256",
                    "name": "amount",
                    "type": "uint256"
                }
            ],
            "name": "PaymentReceived",
            "type": "event"
        },
        {
            "inputs": [
                {
                    "internalType": "uint256",
                    "name": "_id",
                    "type": "uint256"
                }
            ],
            "name": "approveByBuyer",
            "outputs": [],
            "stateMutability": "nonpayable",
            "type": "function"
        },
        {
            "inputs": [
                {
                    "internalType": "uint256",
                    "name": "_id",
                    "type": "uint256"
                }
            ],
            "name": "approveBySeller",
            "outputs": [],
            "stateMutability": "nonpayable",
            "type": "function"
        },
        {
            "inputs": [
                {
                    "internalType": "uint256",
                    "name": "_id",
                    "type": "uint256"
                }
            ],
            "name": "getTransactionById",
            "outputs": [
                {
                    "components": [
                        {
                            "internalType": "uint256",
                            "name": "id",
                            "type": "uint256"
                        },
                        {
                            "internalType": "address",
                            "name": "buyer",
                            "type": "address"
                        },
                        {
                            "internalType": "address",
                            "name": "seller",
                            "type": "address"
                        },
                        {
                            "internalType": "uint256",
                            "name": "amount",
                            "type": "uint256"
                        },
                        {
                            "internalType": "enum Commerce.Status",
                            "name": "status",
                            "type": "uint8"
                        }
                    ],
                    "internalType": "struct Commerce.Transaction",
                    "name": "",
                    "type": "tuple"
                }
            ],
            "stateMutability": "view",
            "type": "function"
        },
        {
            "inputs": [],
            "name": "getTransactions",
            "outputs": [
                {
                    "components": [
                        {
                            "internalType": "uint256",
                            "name": "id",
                            "type": "uint256"
                        },
                        {
                            "internalType": "address",
                            "name": "buyer",
                            "type": "address"
                        },
                        {
                            "internalType": "address",
                            "name": "seller",
                            "type": "address"
                        },
                        {
                            "internalType": "uint256",
                            "name": "amount",
                            "type": "uint256"
                        },
                        {
                            "internalType": "enum Commerce.Status",
                            "name": "status",
                            "type": "uint8"
                        }
                    ],
                    "internalType": "struct Commerce.Transaction[]",
                    "name": "",
                    "type": "tuple[]"
                }
            ],
            "stateMutability": "view",
            "type": "function"
        },
        {
            "inputs": [
                {
                    "internalType": "uint256",
                    "name": "_amount",
                    "type": "uint256"
                },
                {
                    "internalType": "address",
                    "name": "_to",
                    "type": "address"
                }
            ],
            "name": "receivePayment",
            "outputs": [],
            "stateMutability": "payable",
            "type": "function"
        }
    ],
    "bytecode": "0x608060405234801561001057600080fd5b5033600160006101000a81548173ffffffffffffffffffffffffffffffffffffffff021916908373ffffffffffffffffffffffffffffffffffffffff16021790555061160b806100616000396000f3fe60806040526004361061004a5760003560e01c8063041b5dfb1461004f57806372fd5b3d1461007857806383920e9014610094578063a8645f9f146100bf578063f4b30eaf146100e8575b600080fd5b34801561005b57600080fd5b5061007660048036038101906100719190610e40565b610125565b005b610092600480360381019061008d9190610ecb565b61045b565b005b3480156100a057600080fd5b506100a961068d565b6040516100b691906110b7565b60405180910390f35b3480156100cb57600080fd5b506100e660048036038101906100e19190610e40565b610877565b005b3480156100f457600080fd5b5061010f600480360381019061010a9190610e40565b610a94565b60405161011c9190611141565b60405180910390f35b600080549050811061016c576040517f08c379a0000000000000000000000000000000000000000000000000000000008152600401610163906111b9565b60405180910390fd5b600081815481106101805761017f6111d9565b5b906000526020600020906005020160010160009054906101000a900473ffffffffffffffffffffffffffffffffffffffff1673ffffffffffffffffffffffffffffffffffffffff163373ffffffffffffffffffffffffffffffffffffffff161461021f576040517f08c379a000000000000000000000000000000000000000000000000000000000815260040161021690611254565b60405180910390fd5b6001600281111561023357610232610f55565b5b60008281548110610247576102466111d9565b5b906000526020600020906005020160040160009054906101000a900460ff16600281111561027857610277610f55565b5b146102b8576040517f08c379a00000000000000000000000000000000000000000000000000000000081526004016102af906112c0565b60405180910390fd5b600081815481106102cc576102cb6111d9565b5b906000526020600020906005020160030154471015610320576040517f08c379a00000000000000000000000000000000000000000000000000000000081526004016103179061132c565b60405180910390fd5b60008181548110610334576103336111d9565b5b906000526020600020906005020160020160009054906101000a900473ffffffffffffffffffffffffffffffffffffffff1673ffffffffffffffffffffffffffffffffffffffff166108fc60008381548110610393576103926111d9565b5b9060005260206000209060050201600301549081150290604051600060405180830381858888f193505050501580156103d0573d6000803e3d6000fd5b506002600082815481106103e7576103e66111d9565b5b906000526020600020906005020160040160006101000a81548160ff0219169083600281111561041a57610419610f55565b5b02179055507f0ab6ead5ff681783e38604d729771f8ba89300f334c9f52cba4909f79c6b5588338260405161045092919061136a565b60405180910390a150565b6000821161049e576040517f08c379a0000000000000000000000000000000000000000000000000000000008152600401610495906113df565b60405180910390fd5b8134146104e0576040517f08c379a00000000000000000000000000000000000000000000000000000000081526004016104d790611471565b60405180910390fd5b60006040518060a0016040528060008054905081526020013373ffffffffffffffffffffffffffffffffffffffff1681526020018373ffffffffffffffffffffffffffffffffffffffff1681526020018481526020016000600281111561054a57610549610f55565b5b815250905060008190806001815401808255809150506001900390600052602060002090600502016000909190919091506000820151816000015560208201518160010160006101000a81548173ffffffffffffffffffffffffffffffffffffffff021916908373ffffffffffffffffffffffffffffffffffffffff16021790555060408201518160020160006101000a81548173ffffffffffffffffffffffffffffffffffffffff021916908373ffffffffffffffffffffffffffffffffffffffff1602179055506060820151816003015560808201518160040160006101000a81548160ff0219169083600281111561064857610647610f55565b5b021790555050507f6ef95f06320e7a25a04a175ca677b7052bdd97131872c2192525a629f51be770338460405161068092919061136a565b60405180910390a1505050565b6060600160009054906101000a900473ffffffffffffffffffffffffffffffffffffffff1673ffffffffffffffffffffffffffffffffffffffff163373ffffffffffffffffffffffffffffffffffffffff161461071f576040517f08c379a0000000000000000000000000000000000000000000000000000000008152600401610716906114dd565b60405180910390fd5b6000805480602002602001604051908101604052809291908181526020016000905b8282101561086e57838290600052602060002090600502016040518060a0016040529081600082015481526020016001820160009054906101000a900473ffffffffffffffffffffffffffffffffffffffff1673ffffffffffffffffffffffffffffffffffffffff1673ffffffffffffffffffffffffffffffffffffffff1681526020016002820160009054906101000a900473ffffffffffffffffffffffffffffffffffffffff1673ffffffffffffffffffffffffffffffffffffffff1673ffffffffffffffffffffffffffffffffffffffff168152602001600382015481526020016004820160009054906101000a900460ff16600281111561084957610848610f55565b5b600281111561085b5761085a610f55565b5b8152505081526020019060010190610741565b50505050905090565b60008054905081106108be576040517f08c379a00000000000000000000000000000000000000000000000000000000081526004016108b5906111b9565b60405180910390fd5b600081815481106108d2576108d16111d9565b5b906000526020600020906005020160020160009054906101000a900473ffffffffffffffffffffffffffffffffffffffff1673ffffffffffffffffffffffffffffffffffffffff163373ffffffffffffffffffffffffffffffffffffffff1614610971576040517f08c379a000000000000000000000000000000000000000000000000000000000815260040161096890611549565b60405180910390fd5b6000600281111561098557610984610f55565b5b60008281548110610999576109986111d9565b5b906000526020600020906005020160040160009054906101000a900460ff1660028111156109ca576109c9610f55565b5b14610a0a576040517f08c379a0000000000000000000000000000000000000000000000000000000008152600401610a01906112c0565b60405180910390fd5b600160008281548110610a2057610a1f6111d9565b5b906000526020600020906005020160040160006101000a81548160ff02191690836002811115610a5357610a52610f55565b5b02179055507ffa6a623b1b9ce3368686f28e103643e4ec8375845c7f06189348a9109ebc7e883382604051610a8992919061136a565b60405180910390a150565b610a9c610d98565b6000805490508210610ae3576040517f08c379a0000000000000000000000000000000000000000000000000000000008152600401610ada906111b9565b60405180910390fd5b60008281548110610af757610af66111d9565b5b906000526020600020906005020160010160009054906101000a900473ffffffffffffffffffffffffffffffffffffffff1673ffffffffffffffffffffffffffffffffffffffff163373ffffffffffffffffffffffffffffffffffffffff161480610bd2575060008281548110610b7157610b706111d9565b5b906000526020600020906005020160020160009054906101000a900473ffffffffffffffffffffffffffffffffffffffff1673ffffffffffffffffffffffffffffffffffffffff163373ffffffffffffffffffffffffffffffffffffffff16145b80610c2a5750600160009054906101000a900473ffffffffffffffffffffffffffffffffffffffff1673ffffffffffffffffffffffffffffffffffffffff163373ffffffffffffffffffffffffffffffffffffffff16145b610c69576040517f08c379a0000000000000000000000000000000000000000000000000000000008152600401610c60906115b5565b60405180910390fd5b60008281548110610c7d57610c7c6111d9565b5b90600052602060002090600502016040518060a0016040529081600082015481526020016001820160009054906101000a900473ffffffffffffffffffffffffffffffffffffffff1673ffffffffffffffffffffffffffffffffffffffff1673ffffffffffffffffffffffffffffffffffffffff1681526020016002820160009054906101000a900473ffffffffffffffffffffffffffffffffffffffff1673ffffffffffffffffffffffffffffffffffffffff1673ffffffffffffffffffffffffffffffffffffffff168152602001600382015481526020016004820160009054906101000a900460ff166002811115610d7b57610d7a610f55565b5b6002811115610d8d57610d8c610f55565b5b815250509050919050565b6040518060a0016040528060008152602001600073ffffffffffffffffffffffffffffffffffffffff168152602001600073ffffffffffffffffffffffffffffffffffffffff1681526020016000815260200160006002811115610dff57610dfe610f55565b5b81525090565b600080fd5b6000819050919050565b610e1d81610e0a565b8114610e2857600080fd5b50565b600081359050610e3a81610e14565b92915050565b600060208284031215610e5657610e55610e05565b5b6000610e6484828501610e2b565b91505092915050565b600073ffffffffffffffffffffffffffffffffffffffff82169050919050565b6000610e9882610e6d565b9050919050565b610ea881610e8d565b8114610eb357600080fd5b50565b600081359050610ec581610e9f565b92915050565b60008060408385031215610ee257610ee1610e05565b5b6000610ef085828601610e2b565b9250506020610f0185828601610eb6565b9150509250929050565b600081519050919050565b600082825260208201905092915050565b6000819050602082019050919050565b610f4081610e0a565b82525050565b610f4f81610e8d565b82525050565b7f4e487b7100000000000000000000000000000000000000000000000000000000600052602160045260246000fd5b60038110610f9557610f94610f55565b5b50565b6000819050610fa682610f84565b919050565b6000610fb682610f98565b9050919050565b610fc681610fab565b82525050565b60a082016000820151610fe26000850182610f37565b506020820151610ff56020850182610f46565b5060408201516110086040850182610f46565b50606082015161101b6060850182610f37565b50608082015161102e6080850182610fbd565b50505050565b60006110408383610fcc565b60a08301905092915050565b6000602082019050919050565b600061106482610f0b565b61106e8185610f16565b935061107983610f27565b8060005b838110156110aa5781516110918882611034565b975061109c8361104c565b92505060018101905061107d565b5085935050505092915050565b600060208201905081810360008301526110d18184611059565b905092915050565b60a0820160008201516110ef6000850182610f37565b5060208201516111026020850182610f46565b5060408201516111156040850182610f46565b5060608201516111286060850182610f37565b50608082015161113b6080850182610fbd565b50505050565b600060a08201905061115660008301846110d9565b92915050565b600082825260208201905092915050565b7f4964206f7574206f6620626f756e64732e000000000000000000000000000000600082015250565b60006111a360118361115c565b91506111ae8261116d565b602082019050919050565b600060208201905081810360008301526111d281611196565b9050919050565b7f4e487b7100000000000000000000000000000000000000000000000000000000600052603260045260246000fd5b7f596f7520617265206e6f74207468652062757965722e00000000000000000000600082015250565b600061123e60168361115c565b915061124982611208565b602082019050919050565b6000602082019050818103600083015261126d81611231565b9050919050565b7f4f7065726174696f6e206e6f742076616c69642e000000000000000000000000600082015250565b60006112aa60148361115c565b91506112b582611274565b602082019050919050565b600060208201905081810360008301526112d98161129d565b9050919050565b7f496e73756666696369656e7420636f6e74726163742062616c616e6365000000600082015250565b6000611316601d8361115c565b9150611321826112e0565b602082019050919050565b6000602082019050818103600083015261134581611309565b9050919050565b61135581610e8d565b82525050565b61136481610e0a565b82525050565b600060408201905061137f600083018561134c565b61138c602083018461135b565b9392505050565b7f596f75206d7573742073656e6420736f6d652065746865722e00000000000000600082015250565b60006113c960198361115c565b91506113d482611393565b602082019050919050565b600060208201905081810360008301526113f8816113bc565b9050919050565b7f53656e7420657468657220646f6573206e6f74206d617463682074686520737060008201527f6563696669656420616d6f756e742e0000000000000000000000000000000000602082015250565b600061145b602f8361115c565b9150611466826113ff565b604082019050919050565b6000602082019050818103600083015261148a8161144e565b9050919050565b7f596f7520617265206e6f7420746865206f776e65722e00000000000000000000600082015250565b60006114c760168361115c565b91506114d282611491565b602082019050919050565b600060208201905081810360008301526114f6816114ba565b9050919050565b7f596f7520617265206e6f74207468652073656c6c65722e000000000000000000600082015250565b600061153360178361115c565b915061153e826114fd565b602082019050919050565b6000602082019050818103600083015261156281611526565b9050919050565b7f596f7520617265206e6f7420617574686f72697a65642e000000000000000000600082015250565b600061159f60178361115c565b91506115aa82611569565b602082019050919050565b600060208201905081810360008301526115ce81611592565b905091905056fea2646970667358221220aae22c674b54c2b38f9a46702deffd4e02ff983c8c3d31680a92828ef20d020864736f6c63430008180033",
    "linkReferences": {},
    "deployedLinkReferences": {}
}