{
    "_format": "hh-sol-artifact-1",
    "contractName": "Commerce",
    "sourceName": "contracts/Commerce.sol",
    "abi": [
        {
            "inputs": [],
            "stateMutability": "nonpayable",
            "type": "constructor"
        },
        {
            "anonymous": false,
            "inputs": [
                {
                    "indexed": false,
                    "internalType": "address",
                    "name": "from",
                    "type": "address"
                },
                {
                    "indexed": false,
                    "internalType": "uint256",
                    "name": "id",
                    "type": "uint256"
                }
            ],
            "name": "ApprovedBySeller",
            "type": "event"
        },
        {
            "anonymous": false,
            "inputs": [
                {
                    "indexed": false,
                    "internalType": "address",
                    "name": "from",
                    "type": "address"
                },
                {
                    "indexed": false,
                    "internalType": "uint256",
                    "name": "id",
                    "type": "uint256"
                }
            ],
            "name": "Ended",
            "type": "event"
        },
        {
            "anonymous": false,
            "inputs": [
                {
                    "indexed": false,
                    "internalType": "address",
                    "name": "from",
                    "type": "address"
                },
                {
                    "indexed": false,
                    "internalType": "uint256",
                    "name": "amount",
                    "type": "uint256"
                }
            ],
            "name": "PaymentReceived",
            "type": "event"
        },
        {
            "inputs": [
                {
                    "internalType": "uint256",
                    "name": "_id",
                    "type": "uint256"
                }
            ],
            "name": "approveByBuyer",
            "outputs": [],
            "stateMutability": "nonpayable",
            "type": "function"
        },
        {
            "inputs": [
                {
                    "internalType": "uint256",
                    "name": "_id",
                    "type": "uint256"
                }
            ],
            "name": "approveBySeller",
            "outputs": [],
            "stateMutability": "nonpayable",
            "type": "function"
        },
        {
            "inputs": [],
            "name": "getMyTransactions",
            "outputs": [
                {
                    "components": [
                        {
                            "internalType": "uint256",
                            "name": "id",
                            "type": "uint256"
                        },
                        {
                            "internalType": "address",
                            "name": "buyer",
                            "type": "address"
                        },
                        {
                            "internalType": "address",
                            "name": "seller",
                            "type": "address"
                        },
                        {
                            "internalType": "uint256",
                            "name": "amount",
                            "type": "uint256"
                        },
                        {
                            "internalType": "enum Commerce.Status",
                            "name": "status",
                            "type": "uint8"
                        },
                        {
                            "internalType": "uint256",
                            "name": "timestamp",
                            "type": "uint256"
                        },
                        {
                            "internalType": "uint256",
                            "name": "sale_id",
                            "type": "uint256"
                        }
                    ],
                    "internalType": "struct Commerce.Transaction[]",
                    "name": "",
                    "type": "tuple[]"
                }
            ],
            "stateMutability": "view",
            "type": "function"
        },
        {
            "inputs": [
                {
                    "internalType": "uint256",
                    "name": "_id",
                    "type": "uint256"
                }
            ],
            "name": "getTransactionById",
            "outputs": [
                {
                    "components": [
                        {
                            "internalType": "uint256",
                            "name": "id",
                            "type": "uint256"
                        },
                        {
                            "internalType": "address",
                            "name": "buyer",
                            "type": "address"
                        },
                        {
                            "internalType": "address",
                            "name": "seller",
                            "type": "address"
                        },
                        {
                            "internalType": "uint256",
                            "name": "amount",
                            "type": "uint256"
                        },
                        {
                            "internalType": "enum Commerce.Status",
                            "name": "status",
                            "type": "uint8"
                        },
                        {
                            "internalType": "uint256",
                            "name": "timestamp",
                            "type": "uint256"
                        },
                        {
                            "internalType": "uint256",
                            "name": "sale_id",
                            "type": "uint256"
                        }
                    ],
                    "internalType": "struct Commerce.Transaction",
                    "name": "",
                    "type": "tuple"
                }
            ],
            "stateMutability": "view",
            "type": "function"
        },
        {
            "inputs": [],
            "name": "getTransactions",
            "outputs": [
                {
                    "components": [
                        {
                            "internalType": "uint256",
                            "name": "id",
                            "type": "uint256"
                        },
                        {
                            "internalType": "address",
                            "name": "buyer",
                            "type": "address"
                        },
                        {
                            "internalType": "address",
                            "name": "seller",
                            "type": "address"
                        },
                        {
                            "internalType": "uint256",
                            "name": "amount",
                            "type": "uint256"
                        },
                        {
                            "internalType": "enum Commerce.Status",
                            "name": "status",
                            "type": "uint8"
                        },
                        {
                            "internalType": "uint256",
                            "name": "timestamp",
                            "type": "uint256"
                        },
                        {
                            "internalType": "uint256",
                            "name": "sale_id",
                            "type": "uint256"
                        }
                    ],
                    "internalType": "struct Commerce.Transaction[]",
                    "name": "",
                    "type": "tuple[]"
                }
            ],
            "stateMutability": "view",
            "type": "function"
        },
        {
            "inputs": [
                {
                    "internalType": "uint256",
                    "name": "_amount",
                    "type": "uint256"
                },
                {
                    "internalType": "address",
                    "name": "_to",
                    "type": "address"
                },
                {
                    "internalType": "uint256",
                    "name": "_sale_id",
                    "type": "uint256"
                }
            ],
            "name": "receivePayment",
            "outputs": [],
            "stateMutability": "payable",
            "type": "function"
        }
    ],
    "bytecode": "0x608060405234801561001057600080fd5b5033600160006101000a81548173ffffffffffffffffffffffffffffffffffffffff021916908373ffffffffffffffffffffffffffffffffffffffff160217905550611a7d806100616000396000f3fe6080604052600436106100555760003560e01c8063041b5dfb1461005a57806383920e901461008357806397e4ca70146100ae5780639b4ff232146100d9578063a8645f9f146100f5578063f4b30eaf1461011e575b600080fd5b34801561006657600080fd5b50610081600480360381019061007c9190611224565b61015b565b005b34801561008f57600080fd5b50610098610491565b6040516100a59190611455565b60405180910390f35b3480156100ba57600080fd5b506100c361068f565b6040516100d09190611455565b60405180910390f35b6100f360048036038101906100ee91906114a3565b610912565b005b34801561010157600080fd5b5061011c60048036038101906101179190611224565b610c39565b005b34801561012a57600080fd5b5061014560048036038101906101409190611224565b610e56565b6040516101529190611584565b60405180910390f35b60008054905081106101a2576040517f08c379a0000000000000000000000000000000000000000000000000000000008152600401610199906115fc565b60405180910390fd5b600081815481106101b6576101b561161c565b5b906000526020600020906007020160010160009054906101000a900473ffffffffffffffffffffffffffffffffffffffff1673ffffffffffffffffffffffffffffffffffffffff163373ffffffffffffffffffffffffffffffffffffffff1614610255576040517f08c379a000000000000000000000000000000000000000000000000000000000815260040161024c90611697565b60405180910390fd5b60016002811115610269576102686112cd565b5b6000828154811061027d5761027c61161c565b5b906000526020600020906007020160040160009054906101000a900460ff1660028111156102ae576102ad6112cd565b5b146102ee576040517f08c379a00000000000000000000000000000000000000000000000000000000081526004016102e590611703565b60405180910390fd5b600081815481106103025761030161161c565b5b906000526020600020906007020160030154471015610356576040517f08c379a000000000000000000000000000000000000000000000000000000000815260040161034d9061176f565b60405180910390fd5b6000818154811061036a5761036961161c565b5b906000526020600020906007020160020160009054906101000a900473ffffffffffffffffffffffffffffffffffffffff1673ffffffffffffffffffffffffffffffffffffffff166108fc600083815481106103c9576103c861161c565b5b9060005260206000209060070201600301549081150290604051600060405180830381858888f19350505050158015610406573d6000803e3d6000fd5b5060026000828154811061041d5761041c61161c565b5b906000526020600020906007020160040160006101000a81548160ff021916908360028111156104505761044f6112cd565b5b02179055507f0ab6ead5ff681783e38604d729771f8ba89300f334c9f52cba4909f79c6b558833826040516104869291906117ad565b60405180910390a150565b6060600160009054906101000a900473ffffffffffffffffffffffffffffffffffffffff1673ffffffffffffffffffffffffffffffffffffffff163373ffffffffffffffffffffffffffffffffffffffff1614610523576040517f08c379a000000000000000000000000000000000000000000000000000000000815260040161051a90611822565b60405180910390fd5b6000805480602002602001604051908101604052809291908181526020016000905b8282101561068657838290600052602060002090600702016040518060e0016040529081600082015481526020016001820160009054906101000a900473ffffffffffffffffffffffffffffffffffffffff1673ffffffffffffffffffffffffffffffffffffffff1673ffffffffffffffffffffffffffffffffffffffff1681526020016002820160009054906101000a900473ffffffffffffffffffffffffffffffffffffffff1673ffffffffffffffffffffffffffffffffffffffff1673ffffffffffffffffffffffffffffffffffffffff168152602001600382015481526020016004820160009054906101000a900460ff16600281111561064d5761064c6112cd565b5b600281111561065f5761065e6112cd565b5b81526020016005820154815260200160068201548152505081526020019060010190610545565b50505050905090565b60606000600260003373ffffffffffffffffffffffffffffffffffffffff1673ffffffffffffffffffffffffffffffffffffffff16815260200190815260200160002080548060200260200160405190810160405280929190818152602001828054801561071c57602002820191906000526020600020905b815481526020019060010190808311610708575b505050505090506000815167ffffffffffffffff8111156107405761073f611842565b5b60405190808252806020026020018201604052801561077957816020015b61076661116e565b81526020019060019003908161075e5790505b50905060005b825181101561090957600083828151811061079d5761079c61161c565b5b6020026020010151815481106107b6576107b561161c565b5b90600052602060002090600702016040518060e0016040529081600082015481526020016001820160009054906101000a900473ffffffffffffffffffffffffffffffffffffffff1673ffffffffffffffffffffffffffffffffffffffff1673ffffffffffffffffffffffffffffffffffffffff1681526020016002820160009054906101000a900473ffffffffffffffffffffffffffffffffffffffff1673ffffffffffffffffffffffffffffffffffffffff1673ffffffffffffffffffffffffffffffffffffffff168152602001600382015481526020016004820160009054906101000a900460ff1660028111156108b4576108b36112cd565b5b60028111156108c6576108c56112cd565b5b8152602001600582015481526020016006820154815250508282815181106108f1576108f061161c565b5b6020026020010181905250808060010191505061077f565b50809250505090565b60008311610955576040517f08c379a000000000000000000000000000000000000000000000000000000000815260040161094c906118bd565b60405180910390fd5b823414610997576040517f08c379a000000000000000000000000000000000000000000000000000000000815260040161098e9061194f565b60405180910390fd5b60006040518060e0016040528060008054905081526020013373ffffffffffffffffffffffffffffffffffffffff1681526020018473ffffffffffffffffffffffffffffffffffffffff16815260200185815260200160006002811115610a0157610a006112cd565b5b815260200142815260200183815250905060008190806001815401808255809150506001900390600052602060002090600702016000909190919091506000820151816000015560208201518160010160006101000a81548173ffffffffffffffffffffffffffffffffffffffff021916908373ffffffffffffffffffffffffffffffffffffffff16021790555060408201518160020160006101000a81548173ffffffffffffffffffffffffffffffffffffffff021916908373ffffffffffffffffffffffffffffffffffffffff1602179055506060820151816003015560808201518160040160006101000a81548160ff02191690836002811115610b0b57610b0a6112cd565b5b021790555060a0820151816005015560c082015181600601555050600260003373ffffffffffffffffffffffffffffffffffffffff1673ffffffffffffffffffffffffffffffffffffffff16815260200190815260200160002081600001519080600181540180825580915050600190039060005260206000200160009091909190915055600260008473ffffffffffffffffffffffffffffffffffffffff1673ffffffffffffffffffffffffffffffffffffffff168152602001908152602001600020816000015190806001815401808255809150506001900390600052602060002001600090919091909150557f6ef95f06320e7a25a04a175ca677b7052bdd97131872c2192525a629f51be7703385604051610c2b9291906117ad565b60405180910390a150505050565b6000805490508110610c80576040517f08c379a0000000000000000000000000000000000000000000000000000000008152600401610c77906115fc565b60405180910390fd5b60008181548110610c9457610c9361161c565b5b906000526020600020906007020160020160009054906101000a900473ffffffffffffffffffffffffffffffffffffffff1673ffffffffffffffffffffffffffffffffffffffff163373ffffffffffffffffffffffffffffffffffffffff1614610d33576040517f08c379a0000000000000000000000000000000000000000000000000000000008152600401610d2a906119bb565b60405180910390fd5b60006002811115610d4757610d466112cd565b5b60008281548110610d5b57610d5a61161c565b5b906000526020600020906007020160040160009054906101000a900460ff166002811115610d8c57610d8b6112cd565b5b14610dcc576040517f08c379a0000000000000000000000000000000000000000000000000000000008152600401610dc390611703565b60405180910390fd5b600160008281548110610de257610de161161c565b5b906000526020600020906007020160040160006101000a81548160ff02191690836002811115610e1557610e146112cd565b5b02179055507ffa6a623b1b9ce3368686f28e103643e4ec8375845c7f06189348a9109ebc7e883382604051610e4b9291906117ad565b60405180910390a150565b610e5e61116e565b6000805490508210610ea5576040517f08c379a0000000000000000000000000000000000000000000000000000000008152600401610e9c906115fc565b60405180910390fd5b60008281548110610eb957610eb861161c565b5b906000526020600020906007020160010160009054906101000a900473ffffffffffffffffffffffffffffffffffffffff1673ffffffffffffffffffffffffffffffffffffffff163373ffffffffffffffffffffffffffffffffffffffff161480610f94575060008281548110610f3357610f3261161c565b5b906000526020600020906007020160020160009054906101000a900473ffffffffffffffffffffffffffffffffffffffff1673ffffffffffffffffffffffffffffffffffffffff163373ffffffffffffffffffffffffffffffffffffffff16145b80610fec5750600160009054906101000a900473ffffffffffffffffffffffffffffffffffffffff1673ffffffffffffffffffffffffffffffffffffffff163373ffffffffffffffffffffffffffffffffffffffff16145b61102b576040517f08c379a000000000000000000000000000000000000000000000000000000000815260040161102290611a27565b60405180910390fd5b6000828154811061103f5761103e61161c565b5b90600052602060002090600702016040518060e0016040529081600082015481526020016001820160009054906101000a900473ffffffffffffffffffffffffffffffffffffffff1673ffffffffffffffffffffffffffffffffffffffff1673ffffffffffffffffffffffffffffffffffffffff1681526020016002820160009054906101000a900473ffffffffffffffffffffffffffffffffffffffff1673ffffffffffffffffffffffffffffffffffffffff1673ffffffffffffffffffffffffffffffffffffffff168152602001600382015481526020016004820160009054906101000a900460ff16600281111561113d5761113c6112cd565b5b600281111561114f5761114e6112cd565b5b8152602001600582015481526020016006820154815250509050919050565b6040518060e0016040528060008152602001600073ffffffffffffffffffffffffffffffffffffffff168152602001600073ffffffffffffffffffffffffffffffffffffffff16815260200160008152602001600060028111156111d5576111d46112cd565b5b815260200160008152602001600081525090565b600080fd5b6000819050919050565b611201816111ee565b811461120c57600080fd5b50565b60008135905061121e816111f8565b92915050565b60006020828403121561123a576112396111e9565b5b60006112488482850161120f565b91505092915050565b600081519050919050565b600082825260208201905092915050565b6000819050602082019050919050565b611286816111ee565b82525050565b600073ffffffffffffffffffffffffffffffffffffffff82169050919050565b60006112b78261128c565b9050919050565b6112c7816112ac565b82525050565b7f4e487b7100000000000000000000000000000000000000000000000000000000600052602160045260246000fd5b6003811061130d5761130c6112cd565b5b50565b600081905061131e826112fc565b919050565b600061132e82611310565b9050919050565b61133e81611323565b82525050565b60e08201600082015161135a600085018261127d565b50602082015161136d60208501826112be565b50604082015161138060408501826112be565b506060820151611393606085018261127d565b5060808201516113a66080850182611335565b5060a08201516113b960a085018261127d565b5060c08201516113cc60c085018261127d565b50505050565b60006113de8383611344565b60e08301905092915050565b6000602082019050919050565b600061140282611251565b61140c818561125c565b93506114178361126d565b8060005b8381101561144857815161142f88826113d2565b975061143a836113ea565b92505060018101905061141b565b5085935050505092915050565b6000602082019050818103600083015261146f81846113f7565b905092915050565b611480816112ac565b811461148b57600080fd5b50565b60008135905061149d81611477565b92915050565b6000806000606084860312156114bc576114bb6111e9565b5b60006114ca8682870161120f565b93505060206114db8682870161148e565b92505060406114ec8682870161120f565b9150509250925092565b60e08201600082015161150c600085018261127d565b50602082015161151f60208501826112be565b50604082015161153260408501826112be565b506060820151611545606085018261127d565b5060808201516115586080850182611335565b5060a082015161156b60a085018261127d565b5060c082015161157e60c085018261127d565b50505050565b600060e08201905061159960008301846114f6565b92915050565b600082825260208201905092915050565b7f4964206f7574206f6620626f756e64732e000000000000000000000000000000600082015250565b60006115e660118361159f565b91506115f1826115b0565b602082019050919050565b60006020820190508181036000830152611615816115d9565b9050919050565b7f4e487b7100000000000000000000000000000000000000000000000000000000600052603260045260246000fd5b7f596f7520617265206e6f74207468652062757965722e00000000000000000000600082015250565b600061168160168361159f565b915061168c8261164b565b602082019050919050565b600060208201905081810360008301526116b081611674565b9050919050565b7f4f7065726174696f6e206e6f742076616c69642e000000000000000000000000600082015250565b60006116ed60148361159f565b91506116f8826116b7565b602082019050919050565b6000602082019050818103600083015261171c816116e0565b9050919050565b7f496e73756666696369656e7420636f6e74726163742062616c616e6365000000600082015250565b6000611759601d8361159f565b915061176482611723565b602082019050919050565b600060208201905081810360008301526117888161174c565b9050919050565b611798816112ac565b82525050565b6117a7816111ee565b82525050565b60006040820190506117c2600083018561178f565b6117cf602083018461179e565b9392505050565b7f596f7520617265206e6f7420746865206f776e65722e00000000000000000000600082015250565b600061180c60168361159f565b9150611817826117d6565b602082019050919050565b6000602082019050818103600083015261183b816117ff565b9050919050565b7f4e487b7100000000000000000000000000000000000000000000000000000000600052604160045260246000fd5b7f596f75206d7573742073656e6420736f6d652065746865722e00000000000000600082015250565b60006118a760198361159f565b91506118b282611871565b602082019050919050565b600060208201905081810360008301526118d68161189a565b9050919050565b7f53656e7420657468657220646f6573206e6f74206d617463682074686520737060008201527f6563696669656420616d6f756e742e0000000000000000000000000000000000602082015250565b6000611939602f8361159f565b9150611944826118dd565b604082019050919050565b600060208201905081810360008301526119688161192c565b9050919050565b7f596f7520617265206e6f74207468652073656c6c65722e000000000000000000600082015250565b60006119a560178361159f565b91506119b08261196f565b602082019050919050565b600060208201905081810360008301526119d481611998565b9050919050565b7f596f7520617265206e6f7420617574686f72697a65642e000000000000000000600082015250565b6000611a1160178361159f565b9150611a1c826119db565b602082019050919050565b60006020820190508181036000830152611a4081611a04565b905091905056fea264697066735822122018f707a9435d51db5660d9ee2b3d1ab6ac2fd1b3978c81b891246a499e8f642c64736f6c63430008180033",
    "linkReferences": {},
    "deployedLinkReferences": {}
}